{
  "_format": "hh-sol-artifact-1",
  "contractName": "Counter",
  "sourceName": "contracts/Counter.sol",
  "abi": [
    {
      "inputs": [],
      "stateMutability": "nonpayable",
      "type": "constructor"
    },
    {
      "anonymous": false,
      "inputs": [
        {
          "indexed": true,
          "internalType": "address",
          "name": "previonpusOwner",
          "type": "address"
        },
        {
          "indexed": true,
          "internalType": "address",
          "name": "newOwner",
          "type": "address"
        }
      ],
      "name": "OwnershipTransferred",
      "type": "event"
    },
    {
      "inputs": [
        {
          "internalType": "uint256",
          "name": "_value",
          "type": "uint256"
        }
      ],
      "name": "increment",
      "outputs": [],
      "stateMutability": "nonpayable",
      "type": "function"
    },
    {
      "inputs": [],
      "name": "owner",
      "outputs": [
        {
          "internalType": "address",
          "name": "",
          "type": "address"
        }
      ],
      "stateMutability": "view",
      "type": "function"
    },
    {
      "inputs": [],
      "name": "times",
      "outputs": [
        {
          "internalType": "uint256",
          "name": "",
          "type": "uint256"
        }
      ],
      "stateMutability": "view",
      "type": "function"
    },
    {
      "inputs": [
        {
          "internalType": "address",
          "name": "newOwner",
          "type": "address"
        }
      ],
      "name": "transferOwnership",
      "outputs": [],
      "stateMutability": "nonpayable",
      "type": "function"
    },
    {
      "inputs": [],
      "name": "value",
      "outputs": [
        {
          "internalType": "uint256",
          "name": "",
          "type": "uint256"
        }
      ],
      "stateMutability": "view",
      "type": "function"
    }
  ],
  "bytecode": "0x608060405234801561001057600080fd5b50336000806101000a81548173ffffffffffffffffffffffffffffffffffffffff021916908373ffffffffffffffffffffffffffffffffffffffff1602179055506000600181905550600060028190555061062d806100706000396000f3fe608060405234801561001057600080fd5b50600436106100575760003560e01c80633fa4f2451461005c5780637cf5dab01461007a5780638da5cb5b146100965780639e3b34bf146100b4578063f2fde38b146100d2575b600080fd5b6100646100ee565b6040516100719190610465565b60405180910390f35b610094600480360381019061008f91906103bc565b6100f4565b005b61009e6101b6565b6040516100ab919061042a565b60405180910390f35b6100bc6101da565b6040516100c99190610465565b60405180910390f35b6100ec60048036038101906100e7919061038f565b6101e0565b005b60025481565b60008054906101000a900473ffffffffffffffffffffffffffffffffffffffff1673ffffffffffffffffffffffffffffffffffffffff163373ffffffffffffffffffffffffffffffffffffffff1614610182576040517f08c379a000000000000000000000000000000000000000000000000000000000815260040161017990610445565b60405180910390fd5b80600260008282546101949190610491565b92505081905550600160008154809291906101ae90610523565b919050555050565b60008054906101000a900473ffffffffffffffffffffffffffffffffffffffff1681565b60015481565b60008054906101000a900473ffffffffffffffffffffffffffffffffffffffff1673ffffffffffffffffffffffffffffffffffffffff163373ffffffffffffffffffffffffffffffffffffffff161461026e576040517f08c379a000000000000000000000000000000000000000000000000000000000815260040161026590610445565b60405180910390fd5b600073ffffffffffffffffffffffffffffffffffffffff168173ffffffffffffffffffffffffffffffffffffffff1614156102a857600080fd5b806000806101000a81548173ffffffffffffffffffffffffffffffffffffffff021916908373ffffffffffffffffffffffffffffffffffffffff1602179055508073ffffffffffffffffffffffffffffffffffffffff1660008054906101000a900473ffffffffffffffffffffffffffffffffffffffff1673ffffffffffffffffffffffffffffffffffffffff167f8be0079c531659141344cd1fd0a4f28419497f9722a3daafe3b4186f6b6457e060405160405180910390a350565b600081359050610374816105c9565b92915050565b600081359050610389816105e0565b92915050565b6000602082840312156103a5576103a461059b565b5b60006103b384828501610365565b91505092915050565b6000602082840312156103d2576103d161059b565b5b60006103e08482850161037a565b91505092915050565b6103f2816104e7565b82525050565b6000610405600a83610480565b9150610410826105a0565b602082019050919050565b61042481610519565b82525050565b600060208201905061043f60008301846103e9565b92915050565b6000602082019050818103600083015261045e816103f8565b9050919050565b600060208201905061047a600083018461041b565b92915050565b600082825260208201905092915050565b600061049c82610519565b91506104a783610519565b9250827fffffffffffffffffffffffffffffffffffffffffffffffffffffffffffffffff038211156104dc576104db61056c565b5b828201905092915050565b60006104f2826104f9565b9050919050565b600073ffffffffffffffffffffffffffffffffffffffff82169050919050565b6000819050919050565b600061052e82610519565b91507fffffffffffffffffffffffffffffffffffffffffffffffffffffffffffffffff8214156105615761056061056c565b5b600182019050919050565b7f4e487b7100000000000000000000000000000000000000000000000000000000600052601160045260246000fd5b600080fd5b7f4f6e6c79206f776e657200000000000000000000000000000000000000000000600082015250565b6105d2816104e7565b81146105dd57600080fd5b50565b6105e981610519565b81146105f457600080fd5b5056fea2646970667358221220cc8245ceb6b8514dab1ad2b8fe5776cb6521c196f6c27f55be574181fc219ec464736f6c63430008070033",
  "linkReferences": {},
  "deployedLinkReferences": {}
}